S0150000426C696E6B416E645072696E742E73726563FF
S113000000800020C1010000A9010000A901000036
S113001000000000000000000000000000000000DC
S1130020000000000000000000000000A901000022
S11300300000000000000000A901000015020000FB
S1130040A9010000A9010000A9010000A901000004
S1130050A9010000A9010000A9010000AD010000F0
S1130060A9010000D1210000A9010000A90100009C
S1130070A9010000A9010000E1210000A90100007C
S1130080A9010000A9010000A9010000A9010000C4
S113009000000000A9010000A9010000A90100005E
S11300A0A9010000A9010000A9010000A9010000A4
S11300B00000000010B5064C2378002B07D1054B37
S11300C0002B02D0044800E000BF0123237010BDC0
S11300D09400002000000000AC2D0000084B10B577
S11300E0002B03D00749084800E000BF0748036815
S11300F0002B00D110BD064B002BFBD09847F9E72D
S11301000000000098000020AC2D000090000020AA
S11301100000000010B50749074800F025FE9621AD
S11301200648890100F030FA01210D2001F07AFF20
S113013010BDC04640420F00B8000020180900203E
S113014070B5154D1549280000F014F9144C200021
S113015000F03EFB061E09D0200000F015FC00282C
S1130160F4DDC1B2280000F087FCEFE701210D2087
S113017001F0A4FFFA20800000F08AF831000D207D
S113018001F09CFF0749200000F0F4F8FA208000F9
S113019000F07EF870BDC046B8000020242800009E
S11301A0180900203228000003BEFEE7034B10B5F7
S11301B01B68002B00D0984710BDC046B00000203B
S11301C070B50F490F4CA14204D100F02BF900F097
S11301D087F8FEE70C4D00238D42F6D0CA18E818C4
S11301E0A24205D39042F0D0084B0949002204E012
S11301F0006804331060F1E704C38B42FCD3E4E7E6
S11302000000002094000020B02D00009400002085
S11302107C0B002010B500F060F8002801D100F03C
S113022051F810BD014B18607047C046B000002063
S1130230F7B51348012284461249134C8E6863684B
S113024005689B0E1340019288686268019F920EB4
S11302503A4067463F6893420ED1BD420CD1864274
S11302600AD35B19FA254868AD00861B07486B431F
S11302707043000DC018FEBD3D0013000600E3E707
S1130280B400002010E000E000ED00E0555500004F
S113029070B5041E10D0FFF7CBFF050000F01CF86A
S11302A0FFF7C6FF054B401B9842F7D9FA23013CE0
S11302B09B00ED18002CF3D170BDC046E70300008D
S11302C07047000010B5034A13680133136000F04F
S11302D06DF810BDB40000207047002070477047CF
S11302E010B501F0F5FD02F075F9FFF7F8FF0120F4
S11302F0FFF7CEFF084C200001F048F8200001F081
S1130300F9F8FFF707FFFFF71BFF044B002BFAD0A8
S113031000E000BFF7E7C046200100200000000015
S1130320F7B506000D000C008B180193019B671BA9
S11303309C4207D0336821781B6830009847013409
S11303400028F3D13800FEBD70B505000C00081E6E
S113035007D002F043FA2B6802005B6821002800F2
S1130360984770BD10B50249FFF7EEFF10BDC046B7
S11303704428000070B50400FFF7E6FF05002000E4
S1130380FFF7F0FF401970BD10B50400FFF798FFA8
S1130390014B1C6010BDC046000000200122024B2E
S11303A052421A607047C04600000020164A10B539
S11303B01368591C27D0013B1360002B23D172B65C
S11303C0124B134A0433934208D8BFF34F8F114A98
S11303D0114BDA60BFF34F8FC046FDE70F4A01218E
S11303E01000147D0C42FCD02021148BFF319B089B
S11303F05B0021431183D361094B13800123027DE8
S11304001A42FCD0E1E710BD00000020000000000B
S1130410030200000400FA0500ED00E00040004182
S113042002A5FFFF1E2270B546484749436893431F
S11304301C3A1343436008238C6923438B61434C68
S1130440434B9C829C8A14439C82DC681442FCD0FB
S11304500124404A14701578254203D055786DB2B2
S1130460002DF8DB01249460547864B2002CFBDB8B
S1130470394C5460547864B2002CFBDB8224E401D0
S11304805480547864B2002CFBDB02249C840E3428
S1130490DD682542FCD0314CDC621024DD68254245
S11304A0FCD09D8C2E4C2C439C841024DD6825426A
S11304B0FCD002249D8C80262C439C844024DD683F
S11304C03542FCD0DD682542F9D01024DD68254290
S11304D0FCD000249460547864B2002CFBDB214CE3
S11304E05460547864B2002CFBDB1C6A1E4D2C4013
S11304F080251C621C6AAC431C62032393601B4B63
S1130500536053785BB2002BFBDB0023FF240B7298
S1130510174A4B728B72CB72164B1A60164B174AE2
S11305201B6811689A065B01C90E2340520F120220
S11305300B431343124A13858023426813434360D9
S113054070BDC04600400041000400400C0600009D
S113055000080040000C004001050100B905FF7DC2
S1130560040A000000070300FFFCFFFF030601006C
S1130570006CDC02140000202460800020608000F5
S1130580004000420120704710B50368014A1B6A0D
S1130590984710BD130400000300FC33D9699A691D
S11305A0914203D0DB69C018007D704701204042AE
S11305B0FBE710B50400006901F09AFE2200002355
S11305C0FC329361D36186229200A4186360A36015
S11305D010BDF02001403039484248417047F023B3
S11305E01B011940802306209B0099420AD0013345
S11305F0FF330130994205D0802302385B009942D1
S113060000D0002070470F2001400020012903D0B2
S11306100239481E8141481C704700008923F0B507
S1130620182685B002919B000400C05C33000821A9
S11306304343324D1700EB18595601F06BFD304B14
S11306400821E05C33004343EB18595601F062FD86
S11306502C4BE25C0393022A09D11133E05CFF289E
S113066005D008214643AE19715601F053FD8A2680
S1130670B600A05DFF2819D0012101F0D3FC182297
S1130680A35D21495A43AB56AD18DB0158188B21A1
S1130690890060501D4901225B188C218900635038
S11306A069688A408D21890062501A600122029B88
S11306B01100206901F0C6FE39002000FFF78FFF0A
S11306C0390005002000FFF79EFF390006002000D6
S11306D0FFF77FFF3300009029002069012201F019
S11306E0DBFD0B4B2069E25C039BE15C01F0EEFD5A
S11306F0206901F009FE05B0F0BDC0462C290000B8
S1130700250200002702000018440041144400415F
S113071026020000802210B504005200002101F0DE
S11307209AFF23000022FC335A6020009A6010BD17
S1130730F7B51D0008AB1B780400009309AB1B78C8
S11307401600019300234360FA239B008360114B3E
S11307500F00083303601430FFF7DCFF20001D3066
S1130760FF30FFF7D7FF89236A469B002761E654D1
S1130770094B1278E554094B2000E2546A46084BB1
S11307801279E2548A22293BFF3B9200A35410328F
S1130790A354FEBD482800002502000026020000E4
S11307A0270200000300FC3358689B68C01A01D577
S11307B00130FF30704710B5040020001D30FF30B9
S11307C0FFF7F0FF0028F8D1206901F0A6FD10BD65
S11307D010B51430FFF7E6FF10BD0300FC33596871
S11307E09A68914204DB5A689868801AFF3070470F
S11307F098685B68C01A0138F9E710B51D30FF30FE
S1130800FFF7EBFF10BD10B50400006901F0A1FD76
S1130810002805D0206901F0ACFD206901F09EFD9F
S1130820206901F086FD002820D0206901F0A1FD97
S11308302200FC329369D1690133DBB28B4203D0CD
S113084091696118087593618A239B00E35CFF2B0F
S11308500CD020001430FFF7C0FF092806DC8B23DE
S11308608D229B009200E358A2581A60206901F07F
S11308707BFD00281AD020001D30FF30FFF792FFC7
S1130880002822D086239B00E31899685A68914275
S113089018D08E219A684900A218515C9A680132D6
S11308A0D2B29A60C9B2206901F067FD206901F0F3
S11308B045FD002805D0206901F044FD206901F0C0
S11308C034FD10BD01214942ECE7206901F061FDCE
S11308D0ECE7000070B5040000690D0001F044FD70
S11308E0002824D1FF2686239B00E3185A689968C0
S11308F0013232408A422FD1EFF31083DB070DD44B
S11309001E4B5B68DB05DB0DEDD0103B5BB2002BAF
S113091019DB9B08C0331A4A9B009B58206901F0DD
S113092023FD0028DFD02000FFF76DFFDBE7200068
S11309301D30FF30FFF736FF0028D3D1290020698E
S113094001F01BFD17E00F221340083B9B080D4AE2
S11309509B009B181B68E1E75A68013216409A68AD
S1130960964205D08E215A684900A21855545E60FB
S1130970206901F00AFD012070BDC04600ED00E0D1
S113098000E100E01CED00E00300FC33D9699A6942
S113099070B5040091421AD0DA698218157DDA69BB
S11309A00132D2B2DA618A239B00E35CFF2B0CD0C4
S11309B020001430FFF711FF0A2806DD8C238D2256
S11309C09B009200E358A2581A60280070BD0125CC
S11309D06D42E8E70020704708B4024B9C4610388B
S11309E008BC6047D509000030B50F25CB1D01397F
S11309F002002A40140000093034092A01DD37328C
S1130A0014001C70013B8B42F2D130BD10B50C00B8
S1130A100B4B1868FFF7E8FF21000A4B08311868F0
S1130A20FFF7E2FF2100084B10311868FFF7DCFFE5
S1130A302100064B18311868FFF7D6FF202010BD9F
S1130A400CA0800040A0800044A0800048A080004A
S1130A5008B4024B9C46103808BC60470D0A0000DD
S1130A607047000008B4024B9C46103808BC60472D
S1130A70610A00003F20704713B56B460268D971C4
S1130A800733546819000122A04716BDF0B50B784E
S1130A9095B003AC023301900B7042220021200078
S1130AA001F0D9FD0922042522720422A57562727F
S1130AB006250522242002AE657625779519A074B3
S1130AC0E075E076E877300001210630C177300028
S1130AD00730C17704A8C177092021736175801993
S1130AE00631C1770A208019C277032084466546FF
S1130AF005A8C5772E201027801907702F200925F7
S1130B0008238019057004252370033363700EA82D
S1130B10093BE370237163716373A3736274237677
S1130B20A276E27727752785057033203500801972
S1130B300A2603700FA8067010A801703920401906
S1130B4002703B2035367619317012A90A70802163
S1130B503D3240195219037013704020002249425B
S1130B600E0041335B1918705A70019B20871B7D5E
S1130B70019AA370A37263770133DBB2A377527D2A
S1130B80353816434019C6773120401903703A238B
S1130B90501C5B191870412302320A435B191A7006
S1130BA021004222024800F04BFF15B0F0BDC046C0
S1130BB02001002008B4024B9C46103808BC604752
S1130BC08D0A000070B50A79037D0C0000259A4255
S1130BD00BD10B784E78A12B09D1212E05D10722F8
S1130BE01F49204800F02CFF0135280070BD212B3F
S1130BF0FBD1202E19D1072219491A4800F056FEBC
S1130C00174B1A785978090211439A781204114340
S1130C10DA7812060A439621C9008A4202D1DB79A6
S1130C20DB0708D5FFF7BAFB08E0222E0AD18A7841
S1130C300B4BDA71E4E7FA20FFF7A6FB0021094821
S1130C4001F014F80125232ECFD1E378A2781B02FA
S1130C501343054A00210348136001F007F8C4E771
S1130C6008000020200100200400002008B4024BEA
S1130C709C46103808BC6047C50B000010B5417D88
S1130C80006A013100F03CFD034B1B6801335A1E1E
S1130C909341181810BDC0461000002010B5417DC6
S1130CA0006A023100F042FD10BD10B5417D006ABA
S1130CB0023100F009FD10BD70B50D00417D040046
S1130CC0130002312A00006A00F004FE002801D15A
S1130CD00123636070BD000010B5054C23685A1CE5
S1130CE004D103685B69984703002060180010BDB5
S1130CF010000020074A0300106810B5411C03D0FF
S1130D0001235B42136010BD597D186A013100F064
S1130D1091FDF8E710000020FA239B0070B5040051
S1130D208360032383752300002228334260A36178
S1130D300C4B02201D00443323610835631DE2611E
S1130D4025602162E075DA778323A362013B236384
S1130D50E06200F095F82100103100F065F8200001
S1130D6070BDC0467C2800007047000010B50249E1
S1130D700248FFF7D1FF10BD20010020B800002079
S1130D8070B50E0000254468002C0BD02368310098
S1130D905B6820009847002802DB2D18E468F3E71D
S1130DA001256D42280070BD70B50D004468002C0B
S1130DB008D0236829009B6820009847002802D1A6
S1130DC0E468F4E7200070BD70B50D0000264468A7
S1130DD0002C09D02368290020001B699847361885
S1130DE02D18F6B2E468F3E730002C7070BD70B5CE
S1130DF00D004468002C08D0236829001B682000DB
S1130E009847002802D1E468F4E7200070BD70B56B
S1130E100D004468002C06D023682000DB682900FC
S1130E209847E468F6E770BDF0B58C79457803001F
S1130E302A190020072A1FDC5A68824216D15960F9
S1130E401A78C8790A7112184D711A7000220B4D64
S1130E50944210DD8F6858789600F7590132860065
S1130E6001307751D2B25870F2E70200D0680028FE
S1130E70FBD1D160E4E70120F0BDC046F8000020BA
S1130E800122054905480B68134003D103704270E1
S1130E9043600A607047C046EC000020F000002068
S1130EA0704710B5040001F0F1F9200010BD0000F6
S1130EB0F0B5822919D1C3B22C4D5A01AA189169EF
S1130EC02B4C80010C40C0218905214391612949A3
S1130ED0083308187021506128685B011A5C8A4342
S1130EE0110030220A431A54F0BD0029FCD1C02459
S1130EF0C3B21E4F5D017A1991681D4EA40531409D
S1130F002143072491601C4980010918516008336A
S1130F1039685B015F5CA743BC46012764462743ED
S1130F205F5494692640C024A40534439461114C51
S1130F30124E201870245061585CA043603C20433A
S1130F405854906806408020400330439060906875
S1130F50800B80039060CA184023107903431371F7
S1130F604B19FF339A7A14439C72BDE7D8050020CD
S1130F70FFFFFF8F4C0100200C030020FF3F00F017
S1130F80EFF3108303600123436072B67047036874
S1130F90002B02D162B6BFF36F8F7047F7B506001E
S1130FA0FC36B3690400002B18D1B2277F00C55D5D
S1130FB06846FFF7E5FF019BEDB2013B02D3E55D17
S1130FC0EDB2FAE768460193FFF7E1FF002D01D186
S1130FD00020FEBD706E336EC01AFAE76846FFF754
S1130FE0CFFFD8220025019B5200013B02D3A55C10
S1130FF0EDB2FAE768460193FFF7C9FF002DE7D089
S1131000D6235B00E058043BE358E5E710B5446899
S1131010FC3043690B48DBB25A01A21891680833CB
S11310200840802149030143916091685B01890B69
S1131030890391602268D318402219790A431A71EE
S113104010BDC046FF3F00F0F7B50500FC352B7D11
S11310504268190004000831106849014118C9792F
S1131060C90711D55B01D21893689B049B0C0CD162
S11310702000FFF7CBFF63681A686B69DBB20833A3
S11310805B01D3187F22DA71F7BDE969002923D106
S11310906B66230001266933FF33EE6168465360B3
S11310A0B227FFF76DFF7F00B221019BFF31013BA7
S11310B05A1C38D0D822E6555200A25C581ED2B22F
S11310C06254625C8446002A04D120000193FFF735
S11310D09DFFE9E76346EBE7D6214900635000230F
S11310E0EB6123001D33FF3353606846D826FFF7B6
S11310F047FF01277600B221019BFF31013B5A1CB7
S113110011D0B222A7555200A25C581ED2B262542A
S1131110625C8446002A04D120000193FFF776FF25
S1131120E9E76346EBE768460193FFF730FFA2E780
S1131130F7B5050068462C00FFF722FF0027FF22C1
S1131140019BFC34013B0DD3E0682169884204DB38
S1131150E7682069D71B3F18F4E72769E1687F1A1D
S1131160013FEFE768460193FFF711FFA369684663
S1131170002B41D1FFF704FFB221019B4900013B41
S11311805A1C0CD06E5C5A1EF6B2002E05D168466D
S11311900193FFF7FCFE3000FEBD1300F0E7684644
S11311A001930026FFF7F3FEFF22BE4203D0236E15
S11311B0616E8B4260D3636E226E9A42EBD1002340
S11311C023660133A3616846B224FFF7D9FE6400A5
S11311D0B2220021019BFF32013B581CD7D0295574
S11311E0A85C5F1E002805D0A95428000193FFF7CE
S11311F00DFFEDE73B00F0E7FFF7C2FED821019BAE
S11312004900013B5A1C06D06E5C5A1EF6B2002EF1
S1131210BDD01300F6E768460193FFF7B8FED42269
S113122000265200BE4205D0D6214900AB58695869
S11312308B4232D3D6235B00EB58A9589942AAD1EA
S113124000236846AB50A361D824FFF799FE6400DD
S1131250B2220021019BFF32013B581C97D0295533
S1131260A85C5F1E002805D0A95428000193FFF74D
S1131270CDFEEDE73B00F0E7591CEB18FF33216688
S1131280597FE368206901331340834203D0E06847
S113129028180172E360013687E7591CA950FF2121
S11312A0EB186933FF331B789C46E36801330B402A
S11312B021698B4204D06046E16869180872E360D2
S11312C00136AFE710B50400FFF732FF2300FC330B
S11312D01969DA68914203D01B69E418207A10BDB9
S11312E001204042FBE710B50400FC34FFF720FF67
S11312F0E0682369C01A01D50130FF3010BDF0B594
S113130085B0019200910500FFF712FF02A8FFF7D4
S113131037FE01200024FF26039A4042013A1DD3E0
S11313202B00FC3301998C42F8D2D9681F69C91B80
S113133001D50131FF310029F0D01969DF688C46ED
S11313400100BC4506D019691F6969180137374087
S1131350097A1F61009F39550134E3E702A803921B
S1131360FFF715FE200005B0F0BD37B56B46DC1D58
S113137000230D002370FFF783FD2100FFF700FD1C
S11313802B681818286020783EBD0000F8B50024AA
S1131390494B012105001F201C7000F043FE012170
S11313A01F2000F08BFE454B01211E201C7000F015
S11313B039FE01211E2000F081FE2023404A0F2027
S11313C0D1690B43D36101223E490B7813430B705F
S11313D03D4B19788143197006211C7821431970FB
S11313E03A490C7822430A701A7802401A70602233
S11313F019780A431A70364B364A5A805F78FF09C7
S1131400FCD13548FEF70EFF344E0123300010C8DE
S113141039002278134380222370520001F01BF913
S1131420A378DB07FCD41F2004362D4B66621B68AF
S11314305A0B990C9B01024001405B0F824200D180
S113144005221F2900D10239072B00D1043B268D28
S1131450244F02403E40920132432285228D0140B6
S113146082430E00110031432185228D19031E4B46
S11314701E4813407F220B4323852378C121134048
S1131480237004232278890013430C2223702389B8
S11314909343174A238153581B021B0A535080233A
S11314A0136022787E3B13432370012300212B70A9
S11314B0FFF75AFCF8BDC04641010020400100205E
S11314C000040040584400413C4400415944004158
S11314D0000C004006400000B11E0000D8050020AA
S11314E0246080003FF8FFFFFF8FFFFFB80000205B
S11314F000E100E00078002810D00121084B1B68AF
S11315001A898A431A810822198B0A431A830422EE
S1131510198B0A431A830022024B1A607047C04693
S1131520D8050020D005002010B50F4A93699B0B05
S11315309B03936113680222FF331A729879823AEB
S113154002439A711A7A9207FCD57F24074A2140F4
S1131550937A0800A3431900802301439172917A7E
S11315605B420B43937210BDD8050020005000412C
S113157010B50C00FFF784FC2100FFF738FC0028AD
S113158004D1034A93699B0B9B03936110BDC0462E
S1131590D8050020F8B50D00832A1FD1CAB23C49F2
S11315A05401081983693B4EAD011E40C0239B05BD
S11315B033438361384B08325D19456170200B68F1
S11315C05201D15C8143080040210143D1540222DD
S11315D01B19FF33997A0A439A72F8BD022A52D131
S11315E02E4A8B009858002802D003685B699847FC
S11315F0DA20400000F046FE80220400244E284BEE
S11316004660036052000021083001F024F82200F3
S11316100023FC32D3605561136113669361D36177
S11316205366B2225200A3544432A3500432A3504E
S11316300432A354B222FF32A354EAB25001311847
S11316408B68144F08321F40C0239B053B43072778
S11316508B6033685201D65CAD00BE43B4460326AA
S113166067463E43D65422001D32FF324A600122AF
S11316701B18FF33997A20000A439A72FFF7C6FCBD
S1131680064B5C51A9E711002800FFF711FCA4E701
S1131690D8050020FFFFFF8F4C010020240100200B
S11316A0DC28000070B505000124064BA200D258C6
S11316B0002A05D021002800FFF76CFF0134F4E76D
S11316C070BDC046F80000200B4BCAB20B4889011C
S11316D059185301C318596199690832890B890350
S11316E09961036852019A180223D3715179823B9C
S11316F00B4353717047C0464C010020D8050020AD
S1131700084B8A00D05810B5002803D003689B68A2
S1131710984710BDC9B2044B490159188868800420
S1131720800CF6E724010020D805002010B50C0039
S1131730FFF7E6FF00280CD0064BE4B21B68083420
S113174064011C19802362795B4213436371022391
S1131750E37110BDD8050020F0B51C00304B85B0F6
S11317601B6807000D000292002B56D02D4E3178D5
S1131770C9B2002902D11E2000F0A0FC64233370FA
S1131780294BAA00D058002808D0036822005B68BF
S1131790029998470400200005B0F0BD29003800E4
S11317A0FFF7AEFF844204D929003800FFF7A8FFF1
S11317B004000121EBB21D4E03935B010193F21867
S11317C093689B0B9B039360019A336802989B1860
S11317D0FF335A7A0A4316495A72AB01C9182200D8
S11317E000F030FF002CD6D029003800FFF788FF26
S11317F00028D0D14021039B326808335B01D31801
S11318001879014319710121D9710121019BD31860
S1131810FF339A7A0A439A72BDE701246442BAE715
S1131820D00500204001002024010020D80500201C
S11318300C03002013B56B46DC1D22000123FFF7C7
S11318408BFF012801D1207816BD01204042FBE71F
S113185070B5134BCCB2134A60018901591813189F
S113186059609968104D08340D408021490329437B
S1131870402599609968890B89039960116863010F
S1131880CB181E7935431D719D796D06FCD5640115
S11318900919CB79DB07FCD512189068C0B270BD6A
S11318A00C030020D8050020FF3F00F070B50D00A8
S11318B000211400FFF7CCFFA04200D92000002330
S11318C00349A34203D05A5CEA540133F9E770BDDB
S11318D00C030020F0B51E003F4B85B01B680F00C1
S11318E00192002B3FD08023DB019E423BD83B4C2E
S11318F02178C9B2002902D11F2000F0DFFB642344
S11319000025374A2370BB01D3180293002E2CD034
S1131910344B1B680393FF233B401C0000930834A3
S1131920039B64011C19A379DB0921D02E4B2F4999
S1131930186800F0C3FD2E4B1721584300F0BEFD7C
S11319402C4BE279920713D4DA5D002A01D10138D5
S1131950F7D20122DA55009B224A5B01D3189A6917
S1131960920B92039A6101256D42280005B0F0BDE7
S11319700022204B3400DA553F2E09D9009B402425
S11319805A01184B9B188022996912060A439A61DE
S113199022000199029800F055FE009BA1045A010F
S11319A0104B890C9B18029A2D195A619A69361B9F
S11319B0920B92030A439A61009B039A08335B01DA
S11319C0D3180222DA715979823A0A435A71019B77
S11319D01B1901939AE7C046D0050020410100205D
S11319E04C010020D80500201400002040420F00C4
S11319F0701101004301002070B50D001C000D4E54
S1131A00AB01F61811003000220000F01BFEEDB20D
S1131A1009496D014D196E61AB69084A20001340F4
S1131A20AB61AB69A2049B0B920C9B031343AB61A8
S1131A3070BDC0464C010020D8050020FF3F00F0D7
S1131A40F7B5104B01901B780F001500002B0CD13B
S1131A500D4B16001C78002C09D00C4E0C48348811
S1131A600019641900F0EEFD34802800FEBD002E3C
S1131A70FBD03A19330000210198FFF7BDFF241869
S1131A80361AF4E7CC040020CD050020CE05002052
S1131A90CD040020F8B50E0015000027012A27D92F
S1131AA0100000F0BBFD0400300000F097FE013090
S1131AB040000323207002223800637095420DD940
S1131AC0317800290AD0531CDBB20136A1549D425F
S1131AD003D00232E054D2B2F0E72A0021000548D4
S1131AE0FFF7AEFF471EB841C7B2200000F0A0FDCB
S1131AF03800F8BD20010020F0B50027012687B08A
S1131B001E4B009102A91E7005000297FFF72DFCE1
S1131B1003AC019009223900200000F09CFD092348
S1131B202370022363709E33E3715A332372029B42
S1131B306671093363806B461B7923710F4B1F70E9
S1131B40009B092B07D11A0021002800FFF778FF1A
S1131B50012007B0F0BD0A4B09221E70094E210076
S1131B60280002973780FFF76BFF02A92800FFF7D0
S1131B70FCFB034B32881F700349E6E7CC040020CA
S1131B80CD050020CE050020CD04002070B5CE7810
S1131B9092B005000C00022E0BD18B79C9792E4826
S1131BA009021943FFF7A8FF411E8841C0B212B0D1
S1131BB070BDFFF765F92100FFF7F6F8002803D0A0
S1131BC0C117081AC00FF2E7012E0ED1E279A379EA
S1131BD012021A432149112A3CDCD2B2002A39D01C
S1131BE02800FFF72DFF0120E1E7032EDFD1A378C2
S1131BF0002B28D0022B08D1E279A37912021849CC
S1131C001A432800FFF746FFD1E7012B05D1E279FB
S1131C10A37912021A431349F3E7032BC7D1010036
S1131C20412201A800F017FDFFF72AF901A9FFF7E7
S1131C30CBF8002805D0E279A37912021A4301A94E
S1131C40DFE70378FFDEE279A37912021A4306493B
S1131C50032AC2DD0A78C3E7200100201829000006
S1131C60F82800000C29000008290000CBB2044920
S1131C705B01C9188B699B0B9B038B617047C04642
S1131C80D805002037B5050048780C000B2811D87A
S1131C9000F00AFC061D102E104348604C4F5A5D9C
S1131CA0097801AA002907D1022311705170280074
S1131CB0FFF7A2FE01203EBD002313705370264B94
S1131CC01B78012B00D1137002230021EFE78A78DF
S1131CD00023012A04D101AA137053701F4BEFE7AC
S1131CE01D4A13701E4A93699B0B9B039361E1E7A2
S1131CF08C78012C06D10021184B01AA1C7011709C
S1131D002300D4E70120002CD5D1134B144A1870BA
S1131D1093699B0B9B039361CDE789782800FFF7B8
S1131D2003FCC7E72800FFF731FFC4E701230D4A8E
S1131D30CBE70B780020DB06BDD12800FFF7B2FC0F
S1131D40A278084B1A60CDE70123074ABDE78A78D9
S1131D50054BF7E70020AEE7420100204A010020CE
S1131D60D8050020D0050020D4050020484BF7B545
S1131D701E780500002E7AD1464C23689A8B1207F0
S1131D8007D5082231009A833000FFF791F8424BBF
S1131D901E6023689A8B52071FD504229A833F4AF8
S1131DA01378002B0AD01378013BDBB2137013783D
S1131DB0002B03D101211F2000F080F9384A137849
S1131DC0002B0AD01378013BDBB213701378002B7D
S1131DD003D101211E2000F071F92368FF331A7A20
S1131DE0920603D52022597A0A435A721A7AD206E5
S1131DF025D568462B4A6946C0CAC0C0A268920B62
S1131E009203A2604022587902435A7160230A78EF
S1131E1028001A422CD1FFF735FF00282BD080224E
S1131E2023685242FF3399790A439A712368FF3336
S1131E301A7A520603D54022597A0A435A727F26E7
S1131E4001252368FF331E722F00236808377F01A2
S1131E50DB19DB79002B07D0134BAA00D0580028DC
S1131E600CD003681B6898470135082DECD1F7BDE9
S1131E70FFF77EFBD1E720220C4BD6E7FFF700F8F3
S1131E802900FEF7C4FF2368DF19FE71ECE7C046A2
S1131E90CD050020D8050020D005002041010020F8
S1131EA0400100200C03002024010020FF500041C9
S1131EB010B50248FFF75AFF10BDC04620010020AC
S1131EC0014A024B1A60704700500041D8050020B7
S1131ED0FA21314B10B51868890000F0EFFA2F4B46
S1131EE00138984256D82E492E4A4860C020136AB9
S1131EF000061B021B0A03431362002407238C60A1
S1131F000B608021136A09061B021B0A0B43136230
S1131F10FC22254B196A0A431A62FC22196A9201AF
S1131F200A431A62A022196AD2020A431A622000E2
S1131F300021013400F076F8132CF8D11B4B1C005F
S1131F405A7852B2002AFBDB194A5A80194B1A00FC
S1131F50597EC9090129FBD0E421C90099803F2198
S1131F60D970537EDB09012BFBD0C02300205B0119
S1131F701361907000F024F863785BB2002BFBDBF4
S1131F800D4B0E4A6380D379DB09012BFBD041232F
S1131F90537010BDFEE7C04614000020FFFFFF0091
S1131FA010E000E000ED00E000040040000C004000
S1131FB01E40000000400042214000000048004252
S1131FC0164A00B51300517EC9090129FBD0013816
S1131FD0042816D81969124A0A400F211A615A783E
S1131FE08A4300F061FA0308060B03001100012282
S1131FF00A435A7000BD11000322F9E711000222BE
S1132000F6E7F02311691B050B430F211361537885
S11320108B43190002230B435370EBE7004000424B
S1132020FFFFFFF0182330B51D00040045430820CE
S1132030204A55192856013014D0032912D8080013
S11320406343D156D31800F02FFA02280E1B5868A8
S1132050CB010221184A9B181A1840321170012230
S113206082405A6030BD5868CB010621124A9B1841
S11320701A1840321170012282405A609A61F1E7C5
S11320805868CB0106210C4A9B181A18403211706B
S1132090012282405A605A61E4E75868CB01022168
S11320A0054A9B181A1840321170012282409A6026
S11320B0D8E7C0462C290000004400411823F0B59D
S11320C008245843114A13181C5701341BD0012605
S11320D035005F688356BD400D4ADB019A1890684D
S11320E028420BD10C00601E8441D2194032107872
S11320F034400336A400B04320431070044A9B18B4
S1132100002901D15D61F0BD9D61FCE72C2900002F
S113211000440041F8B50300182058432A4A101817
S1132120007A40B20400013013D0481C00240C286B
S11321300FD800F0B9F9451C1C1C1C1C1C1C1C07E6
S113214007070700092906D100211800FFF76AFFD5
S113215000242000F8BD0A2901D10839F5E700243C
S11321600B29F6D10A391800FFF75CFFF1E71820B4
S11321704343D018466801253400D2561348D2018F
S113218012187308D31830332C401878002C0BD055
S11321900F24090120400143C9B292191970403239
S11321A013781D431570D3E70F27B84301439219E1
S11321B0C9B21970130040331A7815431D70C8E76B
S11321C001246442C5E7C0462C29000000440041B4
S11321D010B50248FEF717FB10BDC04618090020D1
S11321E010B50248FEF70FFB10BDC046DC06002008
S11321F0F7B501240326154F1549380000F04AF8B5
S11322001449154800F046F81449154800F042F8FE
S11322101449154800F03EF81449154800F03AF8FE
S1132220144D1549280000F035F8390000962300B4
S1132230019400221148FEF77BFA009629000194CC
S1132240232324220E48FEF773FAF7BD540B002013
S113225000080042000C0042580B0020001000420D
S11322605C0B002000140042600B002000180042A8
S1132270640B0020680B0020001C00421809002099
S1132280DC06002010B500F0C9F910BD10B500F04F
S1132290CFF910BD01607047F0B505AC257804682E
S11322A0981E471EB841266892070006324302432F
S11322B0072022600140AD01626829430020022BFF
S11322C000D05803114301436160F0BD10B5C02430
S11322D00368A4031868120522400243C0200904BD
S11322E080020140114319605A681043586010BDC0
S11322F00122036819680A431A601A68D207FCD4D9
S1132300DA69D207F9D470470222036819680A43CC
S11323101A60DA699207FCD4704703681A7ED20700
S113232002D41A7E9207FCD57047002203685A83B0
S113233070470368187E4007C00F70470368187E13
S1132340C0097047802302685B42117E0B431376F9
S113235070470368588B8007C00F704702230268D8
S1132360518B0B43538370470368187EC007C00F1B
S113237070470368188DC0B2704703681A7ED2078D
S1132380FCD589B2012019857047012203689A752A
S11323907047012203681A75704700000368214AD8
S11323A030B5934211D0204A93422FD01F4A934212
S11323B02FD01F4A93422FD01E4A93422FD01E4A39
S11323C0934222D10E23192201E009231422012170
S11323D0032599401948C024016099082B40AB405B
S11323E0FC359D4089000918A4000859A843C0255C
S11323F09D402B0003430B518023DB011A43104BF8
S11324005A805A7852B2002AFBDB30BD0A231522C7
S1132410DDE70B231622DAE70C231722D7E70D2377
S11324201822D4E700080042000C004200100042C9
S11324300014004200180042001C004200E100E0C9
S1132440000C0040F8B5040016000F001D00FFF753
S1132450A5FF2000FFF74CFF1C22BB0013407207AE
S11324602468120C134323608423A375012F18D10D
S11324701021012E00D008390A4B69431868C000A6
S113248000F01CF80722A3890240DB045203DB0C92
S11324901343A3810304A089DB0C400B40031843BE
S11324A0A081F8BD1400002002B471464908490017
S11324B0095C49008E4402BC7047C04600224308B0
S11324C08B4274D303098B425FD3030A8B4244D3F8
S11324D0030B8B4228D3030C8B420DD3FF2209023A
S11324E012BA030C8B4202D31212090265D0030BF9
S11324F08B4219D300E0090AC30B8B4201D3CB03EF
S1132500C01A5241830B8B4201D38B03C01A524130
S1132510430B8B4201D34B03C01A5241030B8B4232
S113252001D30B03C01A5241C30A8B4201D3CB021D
S1132530C01A5241830A8B4201D38B02C01A524102
S1132540430A8B4201D34B02C01A5241030A8B4205
S113255001D30B02C01A5241CDD2C3098B4201D31D
S1132560CB01C01A524183098B4201D38B01C01A9B
S1132570524143098B4201D34B01C01A5241030912
S11325808B4201D30B01C01A5241C3088B4201D3C1
S1132590CB00C01A524183088B4201D38B00C01A6E
S11325A0524143088B4201D34B00C01A5241411A95
S11325B000D20146524110467047FFE701B50020A2
S11325C000F006F802BDC0460029F7D076E7704750
S11325D07047C04670B500260C4D0D4C641BA4100A
S11325E0A64209D1002600F011F90A4D0A4C641BD9
S11325F0A410A64205D170BDB300EB58984701362C
S1132600EEE7B300EB5898470136F2E77C00002070
S11326107C0000207C0000208C00002010B5034BBF
S11326200100186800F06AF810BDC04618000020C8
S113263010B5034B0100186800F016F810BDC04631
S113264018000020002310B59A4200D110BDCC5CC4
S1132650C4540133F8E703008218934200D1704751
S113266019700133F9E7000070B50500002910D096
S11326700C1F2368002B00DAE418280000F0B5F8DA
S11326801D4A1368002B05D163601460280000F014
S1132690ADF870BDA34209D9216860188342F3D113
S11326A018685B6841182160EEE713005A68002A35
S11326B001D0A242F9D919685818A0420BD1206858
S11326C00918581819608242E0D1106852684118FC
S11326D019605A60DAE7A04202D90C232B60D5E7CF
S11326E021686018824203D1106852684118216041
S11326F062605C60CAE7C0466C0B0020032370B5BF
S1132700CD1C9D43083506000C2D1ED20C25A94274
S11327101DD8300000F069F8254A1468210000290A
S113272019D1244C2368002B03D1300000F044F865
S113273020602900300000F03FF8431C2CD10C230A
S11327403000336000F052F803E0002DDFDA0C2390
S11327503360002070BD0B685B1B1AD40B2B03D9AC
S11327600B60CC18256003E08C420ED163681360C3
S1132770300000F03BF8200007220B30231D90436B
S1132780C31AE7D05A42E250E4E74B6863600C0096
S1132790EEE70C004968C2E70323C41C9C43A04233
S11327A0E0D0211A300000F007F8431CDAD1C6E764
S11327B06C0B0020700B0020002370B5064C050044
S11327C00800236000F014F8431C03D12368002B95
S11327D000D02B6070BDC046780B00200023C25C83
S11327E00133002AFBD1581E704770477047000020
S11327F0044A1368002B03D018181060180070479F
S1132800014BF9E7740B00207C0B0020F8B5C0469F
S1132810F8BC08BC9E467047F8B5C046F8BC08BC76
S11328209E4670475553425F544553545F4C4F4145
S1132830440053455249414C315F544553545F4C15
S11328404F4144000D0A0000000000000000000099
S1132850D508000021030000FB070000B7070000B3
S1132860D1070000890900009905000089050000CE
S11328701D060000B30500008505000000000000EF
S113288000000000790A0000B90C0000750A00007D
S11328909D0C00007D0C0000F50C0000D90C00001C
S11328A0AB0C00008D0A0000D5090000C50B000028
S11328B00D0A0000610A0000F0FFFFFF00000000A5
S11328C06D0C0000B50B0000D9090000650A00007A
S11328D0510A000000000000000000004910000040
S11328E0FF120000E7120000C5120000A10E000054
S11328F0A30E00009D0F000041726475696E6F2085
S11329004D302050726F0000040309044172647555
S1132910696E6F204C4C430012010002EF0201402B
S1132920032A4F800001010203010000000000009F
S11329300B0000000200000004000000FF00FFFF85
S1132940FFFF0B00000000000A000000020000006E
S113295004000000FF00FFFFFFFF0A00000000006A
S113296008000000040000001C000000FF0000003C
S11329700000FF0000000000090000000400000047
S11329801C000000FF00010001000900000000001D
S11329900E000000040000001C000000FF00000303
S11329A000030E00000000000F00000004000000FF
S11329B01C000000FF00010301030F0000000000E1
S11329C014000000050000002C000000FF000200BD
S11329D002000400000000001500000005000000D3
S11329E02C000000FF0003000300050000000000AD
S11329F006000000040000001C000000FF000001AD
S1132A0000010600000000000700000004000000B0
S1132A101C000000FF00010101010700000000008C
S1132A2012000000040000001C000000FF0000036E
S1132A300003020000000000100000000400000079
S1132A401C000000FF000002000200000000000063
S1132A5013000000040000001C000000FF0001033C
S1132A600103030000000000110000000400000046
S1132A701C000000FF00010201020100FF00000031
S1132A8000000000FF00000000000000FF00FFFF46
S1132A90FFFFFF0000000000030000000100000031
S1132AA002000000FF00FFFFFFFFFF000000000026
S1132AB0160000000200000004000000FF00FFFFF9
S1132AC0FFFF0600000000001700000002000000E5
S1132AD004000000FF00FFFFFFFF070000000000EC
S1132AE00C0000000300000004000000FF00FFFFD2
S1132AF0FFFF0C00FF00000000000000FF000000CA
S1132B0000000000FF00FFFFFFFFFF0001000000C6
S1132B100B0000000300000004000000FF00FFFFA2
S1132B20FFFF0B00010000000A000000030000008A
S1132B3004000000FF00FFFFFFFF0A00FF00000089
S1132B4000000000FF00000000000000FF00FFFF85
S1132B50FFFFFF00FF00000000000000FF00000076
S1132B6000000000FF00FFFFFFFFFF000000000067
S1132B700200000001000000020000000000FFFF4E
S1132B80FFFF020001000000080000000100000037
S1132B90020000000200FFFFFFFF08000100000028
S1132BA00900000001000000020000000300FFFF14
S1132BB0FFFF090000000000040000000100000005
S1132BC0020000000400FFFFFFFF040000000000FB
S1132BD00500000001000000020000000500FFFFE6
S1132BE0FFFF0500010000000200000001000000DA
S1132BF0020000000A00FFFFFFFF020001000000C6
S1132C00030000000B00000004000000FF00FFFFB1
S1132C10FFFFFF00000000001B0000000B0000008D
S1132C2004000000FF00FFFFFFFFFF0000000000A2
S1132C301C0000000600000000000000FF00FFFF71
S1132C40FFFFFF0000000000180000000600000065
S1132C5000000000FF00FFFFFFFFFF000000000076
S1132C60190000000600000000000000FF00FFFF44
S1132C70FFFFFF0001000000160000000300000039
S1132C8000000000FF00FFFFFFFFFF000100000045
S1132C90170000000300000000000000FF00FFFF19
S1132CA0FFFFFF000000000016000000020000000B
S1132CB000000000FF00FFFFFFFFFF000000000016
S1132CC0170000000200000000000000FF00FFFFEA
S1132CD0FFFFFF00000000001300000002000000DE
S1132CE000000000FF00FFFFFFFFFF0000000000E6
S1132CF0100000000200000000000000FF00FFFFC1
S1132D00FFFFFF00000000001200000002000000AE
S1132D1000000000FF00FFFFFFFFFF0000000000B5
S1132D20110000000200000000000000FF00FFFF8F
S1132D30FFFFFF00000000000D0000000400000081
S1132D400C000000FF000100FFFF0D000000000068
S1132D5015000000050000000C000000FF00030047
S1132D60FFFFFF0000000000060000000400000058
S1132D700C000000FF000001FFFFFF000000000046
S1132D8007000000040000000C000000FF00010127
S1132D90FFFFFF000000000002000000010000002F
S1132DA0020000001400FFFFFFFF0200000000000B
S1132DB0FFFFFFFFFFFFFFFF00C20100000008004C
S1132DC0FFFFFFFF40420F001C0000200000000036
S1132DD000000000000000000000000000000000EF
S1132DE000000000000000000000000000000000DF
S1132DF000000000000000000000000000000000CF
S1132E0000000000000000000000000000000000BE
S1132E1000000000000000000000000000000000AE
S1132E20000000000000000000000000DD000000C1
S1132E306D0D0000C11E0000F1210000B50000006E
S1072E40000000008A
S90301C13A
